:100000000C942A000C943E000C9460000C943C006C
:100010000C943C000C943C000C943C000C943C0070
:100020000C943C000C943C000C943C000C943C0060
:100030000C943C000C943C000C943C000C943C0050
:100040000C943C000C943C000C943C000C943C0040
:100050000C943C0011241FBECFE5D8E0DEBFCDBF1D
:1000600010E0A0E6B0E001C01D92A03AB107E1F7B0
:100070000E94B4000C944D020C9400001F920F9249
:100080000FB60F9211242F933F938F93209160000E
:1000900030916100839B05C08FEF88BB2F5F3F4F7E
:1000A00003C018BA215030403093610020936000A3
:1000B0008F913F912F910F900FBE0F901F90189529
:1000C0001F920F920FB60F9211248F93829B03C041
:1000D0008FEF88BB01C018BA8F910F900FBE0F90A1
:1000E0001F901895FC010190F081E02DE430F1059E
:1000F00061F1E530F1057CF4E130F10501F1E23028
:10010000F1051CF4EF2BC9F02CC0E230F105C9F069
:10011000339739F518C0E730F105E9F0E830F1051B
:1001200034F4E530F10599F03697D9F412C0E8308F
:10013000F10599F03997A9F412C083E013C08FE953
:1001400011C085E20FC08DE00DC089E90BC089E4C4
:1001500009C081E407C08FE105C081E003C089E0E8
:1001600001C08FEF85BB08958F929F92AF92BF928F
:10017000CF92DF92EF92FF920F931F93CF93DF9373
:100180009FEF94BB95BB97BB80EF81BB92BB82B3C3
:100190008C6082BB8BB7806C8BBF85B78E6085BF50
:1001A00078943DE7E32E30E0F32E29E7822E20E01D
:1001B000922E9CE9A92E90E0B92E8EE9C82E80E0FF
:1001C000D82E00ED17E040916000509161009A0137
:1001D000C90109964397B8F440937D0050937E007F
:1001E00020917D0030917E0037FF08C08827992735
:1001F000821B930B90937E0080937D0010927A0077
:10020000109279001FC0C9018D599F4F873C9105FD
:1002100010F5CA019C0197FF03C0309521953F4F0F
:10022000C9016AE070E00E94E50190937E0080932E
:100230007D00C9016AE070E00E94E50170937A00D8
:100240006093790010929D0010929C0010929F0084
:1002500010929E006AC0C90189519C4F8F5C9740E3
:1002600040F5CA01FC0197FF03C0F095E195FF4FEF
:10027000CF0164E670E00E94E5019C016AE070E055
:100280000E94E50190937E0080937D00C9016AE0A1
:1002900070E00E94E50170937A0060937900CF01CD
:1002A00064E670E00E94E50170939D0060939C00FD
:1002B000CDCF215F384D2F513E44B8F5CA01EC0136
:1002C00097FF03C0D095C195DF4FCE0168EE73E074
:1002D0000E94E501482FE92F64E670E00E94E501E5
:1002E0009C016AE070E00E94E50190937E0080939B
:1002F0007D00C9016AE070E00E94E50170937A0018
:1003000060937900842F9E2F64E670E00E94E501DF
:1003100070939D0060939C00CE0168EE73E00E9494
:10032000E50170939F0060939E00F0928000E09240
:100330007F009092820080928100B0927C00A09217
:100340007B00D0929B00C0929A00C7010E9472006D
:100350009498C8010197F1F7949A80918100909147
:1003600082000E9472009598C8010197F1F7959A52
:1003700080917B0090917C000E9472009698C80149
:100380000197F1F7969A80919A0090919B000E94B4
:1003900072009798C8010197F1F7979A14CF0E94BD
:1003A0007200949888EC90E00197F1F70895949A80
:1003B0000E947200959888EC90E00197F1F783E82D
:1003C00090E061E070E00E942C0297FB092E072666
:1003D0000AD077FD04D00CD006D000201AF4709516
:1003E00061957F4F0895F6F7909581959F4F0895F9
:1003F000AA1BBB1B51E107C0AA1FBB1FA617B7074B
:1004000010F0A61BB70B881F991F5A95A9F7809566
:100410009095BC01CD010895DC012D923D924D9245
:100420005D926D927D928D929D92AD92BD92CD9294
:10043000DD92ED92FD920D931D93CD93DD93FF918F
:10044000EF918DB78D938EB78D938FB78D93ED937D
:10045000FD93882799270994DC01CB018130910510
:10046000811D2D903D904D905D906D907D908D9073
:100470009D90AD90BD90CD90DD90ED90FD900D9153
:100480001D91CD91DD91ED91FD910D90F894FEBF00
:0E0490000FBEEDBFED91FD910994F894FFCFE2
:00000001FF
